:020000040000FA
:060000000A128A110C280F
:10000800FE00030EF2000A08F3000A128A110B2DF3
:100018000A128A110F280A168A115D240A128A11F7
:10002800D6000A168A115E240A128A11D7000A1607
:100038008A115F240A128A11D8000A168A116024CC
:100048000A128A11D9000A168A1161240A128A1121
:10005800DA000A168A1162240A128A11DB00DC010E
:10006800F901FA01FB01FC0183010A168A11E12C4E
:10007800203083120313AE002E08DB00B001B1015B
:10008800B201B301B401B501B601B70101300A16D6
:100098008A1199240A128A11993083120313A20033
:1000A8008930A3000A168A1161260A128A11F630CD
:1000B80083120313A300FF30A4000230A500003010
:1000C800A6000A168A11B6260A128A11353083123A
:1000D8000313A2008830A3000A168A1161260A12A7
:1000E8008A11173083120313A5000030A6000A12E4
:1000F8008A1112270A128A11EC2A20305B0603198A
:10010800862887288128D92A2030AE002E08DB00CF
:1001180001300A168A1199240A128A1102308312B0
:100128000313A3000030A4000130A5000030A6008E
:100138000A168A11B6260A128A115130831203133D
:10014800A2008930A3000A168A1161260A128A11B0
:10015800831203138514F230A300FF30A400023089
:10016800A5000030A6000A168A11B6260A128A11BE
:10017800003083120313A2008830A3000A168A11E4
:1001880061260A128A111A3083120313A50000305F
:10019800A6000A128A1112270A128A1101300A16B9
:1001A8008A1180240A128A11013083120313B400C1
:1001B8000030B500742A20305B060319E428E528CE
:1001C800DF28612A2030AE002E08DB0001300A1635
:1001D8008A1199240A128A116B3083120313A20020
:1001E8008930A3000A168A1161260A128A11023080
:1001F8000A168A1199240A128A11003083120313ED
:10020800A300A4000230A5000030A6000A168A1137
:10021800B6260A128A11883083120313A200883086
:10022800A3000A168A1161260A128A110130831264
:100238000313B0000030B1002030AE002E08DB0000
:1002480020305B06031929292A29242994292030DA
:100258005B060319302931292B2981292030AE006A
:100268002E08DB0001300A168A1199240A128A1115
:100278005E3083120313A2008930A3000A168A1184
:1002880061260A128A11831203130717B830A000D7
:100298000B30A1000A168A110B250A128A110130A7
:1002A80083120313B6000030B7002030AE002E08CA
:1002B800DB0094292030AE002E08DB0001300A163E
:1002C8008A1199240A128A11283083120313A20072
:1002D8008930A3000A168A1161260A128A1183122C
:1002E800031307134A2901300A168A1199240A129E
:1002F8008A115329B601B70159295B08AE00AF012D
:100308002F08003A031989297E292E08233A031950
:100318007729123A03193229033A03195E297E29EB
:1003280036083704031999299A292B29742A203069
:10033800AE002E08DB0001300A168A1199240A1231
:100348008A110A3083120313A2008930A3000A1607
:100358008A1161260A128A11F23083120313A3004C
:10036800FF30A4000230A5000030A6000A168A114A
:10037800B6260A128A11883083120313A200883025
:10038800A3000A168A1161260A128A110130831203
:100398000313B0000030B1002030AE002E08DB009F
:1003A80020305B060319D929DA29D429462A2030B6
:1003B8005B060319E029E129DB29332A2030AE0046
:1003C8002E08DB0001300A168A1199240A128A11B4
:1003D800DB3083120313A2008830A3000A168A11A7
:1003E80061260A128A11831603130711B830831283
:1003F8000313A0000B30A1000A168A110B250A125C
:100408008A11013083120313B2000030B300203088
:10041800AE002E08DB00462A2030AE002E08DB0096
:1004280001300A168A1199240A128A119930831206
:100438000313A2008830A3000A168A1161260A1243
:100448008A11831603130715FA2901300A168A112F
:1004580099240A128A11052AB201B3010B2A5B08F2
:10046800AE00AF012F08003A03193B2A302A2E08A4
:10047800233A0319292A123A0319E229033A0319DC
:10048800102A302A3208330403194B2A4C2ADB2954
:10049800742A01300A168A1199240A128A11013025
:1004A80083120313B0000030B1002030AE002E08D4
:1004B800DB00742AB001B101592A5B08AE00AF0114
:1004C8002F08003A0319692A5E2A2E08233A0319CD
:1004D8004D2A123A0319E628033A03199B295E2A82
:1004E800300831040319792A7A2ADF28EC2A2030C7
:1004F800AE002E08DB0001300A168A1199240A1270
:100508008A11363083120313A2008930A3000A1619
:100518008A1161260A128A11831203138510F33097
:10052800A300FF30A4000230A5000030A6000A1680
:100538008A11B6260A128A11AA3083120313A2005E
:100548008830A3000A168A1161260A128A1100301F
:100558000A168A1180240A128A11013083120313A1
:10056800B4000030B5002030AE002E08DB00B830F3
:10057800A0000B30A1000A168A110B250A128A1155
:10058800EC2A01300A168A1199240A128A110130BC
:1005980083120313B4000030B5002030AE002E08DB
:1005A800DB00EC2AB401B501D12A5B08AE00AF012B
:1005B8002F08003A0319E12AD62A2E08233A0319EC
:1005C800C52A123A03198828033A03197B2AD62A1E
:1005D80083120313340835040319F32AF42A8128F3
:1005E8000800203083120313B5003508DB00022D04
:1005F80000300A168A1141250A128A118312031340
:100608002108CA002008C9004A08803AFF00823041
:100618007F02031D112BD6304902031C142B152B06
:100628005A2B0A3083120313A6000030A7004A0889
:10063800A1004908A000FA30A200FF30A3000A1662
:100648008A11BA240A128A11831203132008923ECF
:10065800A80021080318013E133EA9000A168A11B2
:1006680010270A128A11831203132608CB002708C1
:10067800CC000030CC1BFF30CD00CE004A08803AB9
:10068800FF0083307F02031D4B2B44304902031CBB
:100698004E2B4F2B982B003083120313CE000030C3
:1006A800CD000030CC000030CB00982BE83083120E
:1006B8000313A6000330A7004A08B6004908B5008E
:1006C8000310B50DB60D0310B50DB60D0310B50D1D
:1006D800B60D3508A8003608A9000A168A11102791
:1006E8000A128A11831203132608F53EA000270870
:1006F8000318013EFF3EA1004A08A3004908A200D2
:100708000A168A11BA240A128A11831203132008BE
:10071800AF3ECB0021080318013E103ECC00CD01AE
:10072800CC1BCD034D08CE00BB3083120313A200AF
:100738008830A3000A168A1161260A128A11F1303C
:1007480083120313A300FF30A4000230A500003079
:10075800A6000A168A11B6260A128A1183120313F2
:10076800CE1FB72BB82BC32BCB09CC09CD09CE098B
:10077800CB0A0319CC0A0319CD0A0319CE0A003093
:10078800A9000030A8000330A700E830A6004E08F2
:10079800AD004D08AC004C08AB004B08AA000A128B
:1007A8008A150E230A128A11831203132708C80018
:1007B8002608C7004708303E0A168A1170240A1214
:1007C8008A11003083120313A9000030A8000030FA
:1007D800A7006430A6004808A1004708A000E83038
:1007E800A2000330A3000A168A11BA240A128A1139
:1007F800831203132008B5002108B6000030B61B89
:10080800FF30B700B8004B08B9004C08BA004D08D3
:10081800BB004E08BC003508B9023608031C360F69
:10082800162C172CBA023708031C370F1C2C1D2C4A
:10083800BB023808031C380F222C232CBC023C08AE
:10084800AD003B08AC003A08AB003908AA000A1210
:100858008A150E230A128A11831203132708C60069
:100868002608C5004508303E0A168A1170240A1267
:100878008A11003083120313A9000030A800003049
:10088800A7000A30A6004B08B5004C08B6004D0872
:10089800B7004E08B8004608A1004508A00064301B
:1008A800A2000030A3000A168A11BA240A128A117B
:1008B800831203132008B9002108BA000030BA1BBC
:1008C800FF30BB00BC004808A1004708A000E83082
:1008D800A2000330A3000A168A11BA240A128A1148
:1008E800831203132008BD002108BE000030BE1B80
:1008F800FF30BF00C000BD09BE09BF09C009BD0A5D
:100908000319BE0A0319BF0A0319C00A3908BD0230
:100918003A08031C3A0F912C922CBE023B08031C88
:100928003B0F972C982CBF023C08031C3C0F9D2CB6
:100938009E2CC0023D08B5073E0803183E0FA52CA3
:10094800A62CB6073F0803183F0FAB2CAC2CB707F3
:1009580040080318400AB8073808AD003708AC004B
:100968003608AB003508AA000A128A150E230A12A7
:100978008A11831203132708C4002608C3004308FA
:10098800303E0A168A1170240A128A110030831226
:100998000313A3000030A2000030A1000A30A00019
:1009A8004E08A7004D08A6004C08A5004B08A40057
:1009B8000A168A1179270A128A1183120313210849
:1009C800C2002008C1004108303E0A168A1170246E
:1009D8000A128A11033083120313B7008A30B60053
:1009E8005530B500B50BF62CB60BF62CB70BF62C1C
:1009F80002300A168A1199240A128A1120308312A9
:100A080003135B060319092D0A2DFC2A08000B1C89
:100A18000E2D0F2DF92EF401F501F50AF601F60A4F
:100A2800F701F70AF801F80AF02E740C8312031381
:100A3800031C861103188615750C031C0611031870
:100A48000615760C031C861003188614861B2D2D9C
:100A58002E2D4B2D8619312D322D4B2D0330F100C3
:100A68009730F000F00B362DF10B362D3B2D2A3048
:100A7800F000700883120313DB00F8018230F100E4
:100A8800DD30F000F00B462DF10B462D4B2D831277
:100A98000313861B502D512D6E2D0619542D552DDF
:100AA8006E2D0330F1009730F000F00B592DF10B4B
:100AB800592D5E2D3030F000700883120313DB00CF
:100AC800F8018230F100DD30F000F00B692DF10BF8
:100AD800692D6E2D83120313861B732D742D912D92
:100AE8008618772D782D912D0330F1009730F0007E
:100AF800F00B7C2DF10B7C2D812D2330F00070083C
:100B080083120313DB00F8018230F100DD30F000BE
:100B1800F00B8C2DF10B8C2D912D83120313061BDA
:100B2800962D972DB42D86199A2D9B2DB42D033013
:100B3800F1009730F000F00B9F2DF10B9F2DA42DA5
:100B48003730F000700883120313DB00F80182309D
:100B5800F100DD30F000F00BAF2DF10BAF2DB42D0F
:100B680083120313061BB92DBA2DD72D0619BD2DD7
:100B7800BE2DD72D0330F1009730F000F00BC22DB9
:100B8800F10BC22DC72D3830F00070088312031303
:100B9800DB00F8018230F100DD30F000F00BD22DDF
:100BA800F10BD22DD72D83120313061BDC2DDD2D5F
:100BB800FA2D8618E02DE12DFA2D0330F10097303B
:100BC800F000F00BE52DF10BE52DEA2D3930F000A2
:100BD800700883120313DB00F8018230F100DD3066
:100BE800F000F00BF52DF10BF52DFA2D8312031300
:100BF800861AFF2D002E1D2E8619032E042E1D2E5B
:100C08000330F1009730F000F00B082EF10B082E9E
:100C18000D2E3430F000700883120313DB00F80146
:100C28008230F100DD30F000F00B182EF10B182E99
:100C38001D2E83120313861A222E232E402E0619E8
:100C4800262E272E402E0330F1009730F000F00BAF
:100C58002B2EF10B2B2E302E3530F000700883121E
:100C68000313DB00F8018230F100DD30F000F00BF7
:100C78003B2EF10B3B2E402E83120313861A452E72
:100C8800462E632E8618492E4A2E632E0330F10015
:100C98009730F000F00B4E2EF10B4E2E532E3630BF
:100CA800F000700883120313DB00F8018230F100B2
:100CB800DD30F000F00B5E2EF10B5E2E632E8312FA
:100CC8000313061A682E692E862E86196C2E6D2E31
:100CD800862E0330F1009730F000F00B712EF10BE7
:100CE800712E762E3130F000700883120313DB006A
:100CF800F8018230F100DD30F000F00B812EF10BAD
:100D0800812E862E83120313061A8B2E8C2EA92E63
:100D180006198F2E902EA92E0330F1009730F0007F
:100D2800F00B942EF10B942E992E3230F0007008AF
:100D380083120313DB00F8018230F100DD30F0008C
:100D4800F00BA42EF10BA42EA92E83120313061A5E
:100D5800AE2EAF2ECC2E8618B22EB32ECC2E03304C
:100D6800F1009730F000F00BB72EF10BB72EBC2E28
:100D78003330F000700883120313DB00F80182306F
:100D8800F100DD30F000F00BC72EF10BC72ECC2E92
:100D98007703031DD02ED12ED62EF401F40AF501C7
:100DA800F601F60A02307706031DDB2EDC2EE12E53
:100DB800F401F40AF501F50AF60103307706031D7C
:100DC800E62EE72EEC2EF801FF30F0007008F70051
:100DD8000130F0007008F70778030319F42EF52E98
:100DE800192D8312031386010B10831203138C1C15
:100DF800FE2EFF2E0B2F8C100130F9070318FA0A6C
:100E08000030FA070A128A15C1210A128A117308DA
:100E18008A00720E8300FE0E7E0E090003308312D4
:100E28000313A8009730A700A70B182FA80B182F9B
:100E380002300A168A1199240A128A110230831282
:100E48000313A9008630A8009830A700A70B2A2F03
:100E5800A80B2A2FA90B2A2F000083120313260898
:100E6800803AFF0080307F02031D3C2F113025029D
:100E7800031C3F2F402F952F831203132608803A17
:100E8800FF0080307F02031D4B2F403025020318DE
:100E98004E2F4F2F952F831203132508F03EAA00DB
:100EA80026080318013EFF3EAB002030A7002708A4
:100EB800DB00FF30AC00FF30AD007F2F0230831223
:100EC8000313A9008630A8009830A700A70B6A2F43
:100ED800A80B6A2FA90B6A2F00001B300A168A116B
:100EE80099240A128A11013083120313AC070318DC
:100EF800AD0A0030AD072D08803AA7002B08803ACC
:100F08002702031D892F2A082C0203188C2F8D2FE6
:100F1800952F2030831203135B060319942F952F06
:100F2800622F2030831203135B06031D9C2F9D2F15
:100F3800A62F5830A0000230A1000A168A110B25EE
:100F48000A128A11033083120313A8009730A700EE
:100F5800A70BAC2FA80BAC2F02300A168A119924C4
:100F68000A128A11033083120313A8009730A700CE
:100F7800A70BBC2FA80BBC2F080083120313200853
:100F880021040319C82FC92FF82FA501A50AD72FA7
:100F980001300310A00DA10DFF3E031DCD2F013020
:100FA800A4002408A507A11FDA2FDB2FCC2F2108C6
:100FB8002302031DE12F20082202031CE42FE52F42
:100FC800EB2F2008A2022108031CA303A30201306F
:100FD8000310A10CA00CFF3E031DEC2F0130A5024D
:100FE800031DF72FF82FDB2F2308A1002208A000EC
:020FF8000800EF
:10100000233431343A34203441346C346134723412
:101010006D3461342034233432343A34203456343D
:1010200065346E34743469346C34613463346934D7
:101030006F346E340034233431343A342034543431
:1010400065346D34703420342034233432343A34EF
:10105000203450346F347234203464346534663450
:101060006534633474346F340034233432343A34A6
:1010700020344134753474346F346D3461347434D5
:10108000693463346F34203428346434653466340E
:101090006534633474346F342934003455346D341A
:1010A0006234723461346C346534733420346434A3
:1010B0006534203461346334743475346134643499
:1010C0006F347234653473343A340034203420344D
:1010D00020342034543465346D3470342E3420344C
:1010E00033343034433420342034203400344E340C
:1010F0006934763465346C34203464346534203497
:1011000043344F343A3420343134353425340034C8
:10111000233431343A3420344F346E342034203484
:101120002034233432343A3420344F346634663435
:1011300000342034563465346E34743469346C347D
:101140006134633469346F346E3420344F34663420
:101150006634003443346F346E3466342034703473
:101160006F347234203464346534663465346334E7
:1011700074346F34003446346C3475346A346F34EC
:1011800020346C3475346D3469346E346F34733498
:101190006F343A340034233431343A342034543404
:1011A00065346D347034653472346134743475343C
:1011B0007234613400342034563465346E347434FF
:1011C00069346C346134633469346F346E34203480
:1011D0004F346E340034203455346D3462347234FC
:1011E00061346C342034443465346634653463349B
:1011F00074346F3400342034203455346D34623408
:10120000723461346C342034543465346D34703449
:101210002E34003420342034563465346E34743423
:1012200069346C346134633469346F346E343A3405
:101230000034233433343A3420344D3461346E3442
:1012400020342F3420344134753474346F340034F6
:1012500020342034203441346C34613472346D34A1
:10126000613420344F346634663400342034203402
:10127000203441346A347534733474346534413401
:10128000753474346F340034483475346D346534D7
:101290006434613464343A3420343334363425349D
:1012A000003441346A3475347334743465344D34E5
:1012B00061346E34753461346C340034203420343D
:1012C000203441346C34613472346D3461342034F0
:1012D0004F346E34003420342034203420344134F0
:1012E0006C34613472346D3461343A3400342334F4
:1012F00033343A3420344C3475346D3465346E34C0
:101300006534733400344234493445344E345634F1
:1013100045344E34493444344F3400342334323469
:101320003A34203455346D346234723461346C3460
:101330000034233431343A3420344D3461346E3443
:10134000753461346C340034233432343A3420340C
:10135000483475346D346F342034003423343134E0
:101360003A3420344434613474346F347334003488
:0E137000543465346D3470343A342034003413
:101382000A168A1163240A128A15013A031DCA2910
:10139200CB29CF29831203130717D22983120313F0
:1013A200071359085702031DD82958085602031C6F
:1013B200DB29DC29E029831603130711E3298316AD
:1013C200031307150800033083120313A900290829
:1013D200AB0001300A168A1199240A128A150330C9
:1013E20083120313A3000030A4000130A5000030D3
:1013F200A6000A168A11B6260A128A1583308312AB
:101402000313A2008930A3000A168A1161260A1268
:101412008A15203083120313A9002908DB00AE01CC
:10142200AE0A5A2A02300A168A1199240A128A1519
:10143200083083120313A3000030A4000230A50079
:101442000030A6000A168A11B6260A128A158312DD
:1014520003132E08303EA9002908AD002D080A16F4
:101462008A1170240A128A1583120313AC014A2AC4
:10147200073083120313AA007C30A900A90B3F2A6C
:10148200AA0B3F2A0000013083120313A900290886
:10149200AC0764302C0203184F2A502A562A2030F7
:1014A2005B060319552A562A392A0130A900290850
:1014B200AE072E082B02031C5F2A602A662A203000
:1014C2005B060319652A662A132A01300A168A1155
:1014D20099240A128A15203083120313A9002908BD
:1014E200DB000800203083120313D2005208DB0015
:1014F200D40101300A168A1199240A128A15AE30D3
:1015020083120313A2008930A3000A168A116126EE
:101512000A128A15033083120313A3000030A400B9
:101522000130A5000030A6000A168A11B6260A125A
:101532008A158E3083120313A2008930A3000A1683
:101542008A1161260A128A15EA3083120313A30054
:10155200FF30A4000230A5000030A6000A168A114E
:10156200B6260A128A15193083120313A200893093
:10157200A3000A168A1161260A128A1516308312EE
:101582000313A5000030A6000A128A1112270A12BC
:101592008A15062B20305B060319D02AD12ACB2AC2
:1015A200F02A0A128A15AB230A128A158312031330
:1015B200D401D40A2030D2005208DB00062B0A12D2
:1015C2008A15A1240A128A15D72A0A128A113C20E6
:1015D2000A128A15D72ADC01D72AD401DB2A5B0832
:1015E200D200D3015308003A0319F82AEE2A52080E
:1015F200233A0319EC2A123A0319D22A033A03199D
:10160200E02A013A0319E62AEE2A83120313540848
:1016120003190C2B0D2BCB2A080083120313B001E4
:10162200A91F142B152B222BA609A709A809A90962
:10163200A60A0319A70A0319A80A0319A90AB001DD
:10164200B00AAD1F252B262B352BAA09AB09AC09F5
:10165200AD09AA0A0319AB0A0319AC0A0319AD0AA8
:101662000130AE002E08B0060030B4000030B300E6
:101672000030B2000030B1002908280427042604F3
:101682000319442B452B922BAF01AF0A552B013086
:10169200AE000310A60DA70DA80DA90DAE0B4A2B87
:1016A2000130AE002E08AF07A91F582B592B482B2B
:1016B2000130AE000310B10DB20DB30DB40DAE0B7F
:1016C2005B2B29082D02031D702B28082C02031DF9
:1016D200702B27082B02031D702B26082A02031CDD
:1016E200732B742B832B2608AA022708031C270FAF
:1016F200AB022808031C280FAC022908031C290F7F
:10170200AD02311401300310A90CA80CA70CA60CD1
:10171200FF3E031D842B0130AF02031D912B922B40
:10172200592B30080319962B972BA22BB109B2091A
:10173200B309B409B10A0319B20A0319B30A0319A6
:10174200B40A3408A9003308A8003208A7003108F7
:10175200A6000800203083120313CF004F08DB00DD
:10176200D10101300A168A1199240A128A15CB3046
:1017720083120313A2008830A3000A168A1161267D
:101782000A128A1502300A168A1199240A128A1537
:10179200003083120313A300A4000230A50000301E
:1017A200A6000A168A11B6260A128A15A4308312D6
:1017B2000313A2008930A3000A168A1161260A12B5
:1017C2008A15773083120313A2008930A3000A1608
:1017D2008A1161260A128A15133083120313A50097
:1017E2000030A6000A128A1112270A128A15992CB1
:1017F20020305B060319FE2BFF2BF92B832C0130C3
:101802000A168A1199240A128A1502300A168A11B6
:1018120099240A128A15003083120313A300A4002C
:101822000230A5000030A6000A168A11B6260A1256
:101832008A15443083120313A2008930A3000A16CA
:101842008A1161260A128A150A128A159E250A121F
:101852008A15B83083120313A0000B30A1000A16B8
:101862008A110B250A128A1583120313D101D10A98
:10187200992C01300A168A1199240A128A15773096
:1018820083120313A2008830A3000A168A1161266C
:101892000A128A15F03083120313A300FF30A4004A
:1018A2000230A5000030A6000A168A11B6260A12D6
:1018B2008A15B83083120313A0000B30A1000A1658
:1018C2008A110B250A128A15352C01300A168A1143
:1018D20099240A128A150A128A11F5220A128A1505
:1018E200352C01300A168A1199240A128A1583129C
:1018F2000313D101D10A2030CF004F08DB00992C0D
:10190200D1017C2C5B08CF00D0015008003A0319AA
:101912008B2C812C4F08233A0319722C123A03198B
:10192200002C033A03193A2C013A0319662C812C34
:1019320083120313510803199F2CA02CF92B0800C2
:10194200203083120313B0003008DB00B2010130F3
:101952000A168A1199240A128A154E308312031329
:10196200A2008830A3000A168A1161260A128A157B
:10197200E93083120313A300FF30A4000230A50054
:101982000030A6000A168A11B6260A128A151B30E2
:1019920083120313A2008830A3000A168A1161265B
:1019A2000A128A15183083120313A5000030A6000C
:1019B2000A128A1112270A128A15962D20305B0606
:1019C2000319E42CE52CDF2C832D2030B0003008E5
:1019D200DB0001300A168A1199240A128A15FB309B
:1019E20083120313A2008830A3000A168A1161260B
:1019F2000A128A1502300A168A1199240A128A15C5
:101A0200003083120313A300A4000230A5000030AB
:101A1200A6000A168A11B6260A128A150A128A1511
:101A2200BA260A128A15B83083120313A0000B30AB
:101A3200A1000A168A110B250A128A1583120313B2
:101A4200B201B20A2030B0003008DB00962D2030FF
:101A5200B0003008DB0001300A168A1199240A12FC
:101A62008A15EB3083120313A2008830A3000A16F2
:101A72008A1161260A128A151E3083120313D800B6
:101A82000030D90002300A168A1199240A128A15E6
:101A9200003083120313A300A4000230A50000301B
:101AA200A6000A168A11B6260A128A156630831211
:101AB2000313A2008830A3000A168A1161260A12B3
:101AC2008A15B83083120313A0000B30A1000A1646
:101AD2008A110B250A128A1583120313B201B20A64
:101AE2002030B0003008DB00962D01300A168A1132
:101AF20099240A128A1583120313B201B20A962D8F
:101B0200B201712D5B08B000B1013108003A03192E
:101B12008B2D812D3008233A0319762D123A0319A1
:101B2200E62C033A0319282D812D83120313320860
:101B320003199C2D9D2DDF2C080083120313AB018A
:101B4200203083120313A9002908DB00B42E0230CF
:101B52000A168A1199240A128A15B83083120313BD
:101B6200A2008930A3000A168A1161260A128A1578
:101B72000A3083120313A0000030A1005708A3000B
:101B82005608A2000A168A1181250A128A158312A2
:101B920003132108AD002008AC002C08303E0A16C1
:101BA2008A1170240A128A150A3083120313A000C4
:101BB2000030A1005708A3005608A2000A128A1199
:101BC200C1270A128A15831203132108AF002008C5
:101BD200AE002E08303E0A168A1170240A128A15A7
:101BE2002030831203135B060319F82DF92DA82D5B
:101BF200A12E5608013ED60057080318013E003EAA
:101C0200D70002300A168A1199240A128A15B830AE
:101C120083120313A2008930A3000A168A116126D7
:101C22000A128A150A3083120313A0000030A100A1
:101C32005708A3005608A2000A168A1181250A1223
:101C42008A15831203132108AD002008AC002C086A
:101C5200303E0A168A1170240A128A150A3083123B
:101C62000313A0000030A1005708A3005608A200E9
:101C72000A128A11C1270A128A1583120313210834
:101C8200AF002008AE002E08303E0A168A117024DA
:101C92000A128A15A12D5608FF3ED60057080318CE
:101CA200013EFF3ED70002300A168A1199240A1219
:101CB2008A15B83083120313A2008930A3000A16D2
:101CC2008A1161260A128A150A3083120313A000B0
:101CD2000030A1005708A3005608A2000A168A1174
:101CE20081250A128A15831203132108AD002008E8
:101CF200AC002C08303E0A168A1170240A128A158A
:101D02000A3083120313A0000030A1005708A30079
:101D12005608A2000A128A11C1270A128A158312D2
:101D220003132108AF002008AE002E08303E0A1629
:101D32008A1170240A128A15A12DAB01AB0AB42EA6
:101D42005B08A900AA012A08003A0319A92EA12DAD
:101D52002908233A03199E2E113A0319FA2D0A3A39
:101D620003194C2EA12D2B080319B82EB92EF12DD3
:101D7200080083120313AB01203083120313A9005E
:101D82002908DB00FA2F02300A168A1199240A1256
:101D92008A15003083120313A300A4000230A500A9
:101DA2000030A6000A168A11B6260A128A15B83021
:101DB20083120313A2008930A3000A168A11612636
:101DC2000A128A150A3083120313A0000030A10000
:101DD2005908A3005808A2000A168A1181250A127E
:101DE2008A15831203132108AD002008AC002C08C9
:101DF200303E0A168A1170240A128A150A3083129A
:101E02000313A0000030A1005908A3005808A20043
:101E12000A128A11C1270A128A1583120313210892
:101E2200AF002008AE002E08303E0A168A11702438
:101E32000A128A152030831203135B060319222F1C
:101E4200232FC42EE72F5808013ED8005908031843
:101E5200013E003ED90002300A168A1199240A1264
:101E62008A15003083120313A300A4000230A500D8
:101E72000030A6000A168A11B6260A128A15B83050
:101E820083120313A2008930A3000A168A11612665
:101E92000A128A150A3083120313A0000030A1002F
:101EA2005908A3005808A2000A168A1181250A12AD
:101EB2008A15831203132108AD002008AC002C08F8
:101EC200303E0A168A1170240A128A150A308312C9
:101ED2000313A0000030A1005908A3005808A20073
:101EE2000A128A11C1270A128A15831203132108C2
:101EF200AF002008AE002E08303E0A168A11702468
:101F02000A128A15BD2E5808FF3ED8005908031838
:101F1200013EFF3ED90002300A168A1199240A12A4
:101F22008A15003083120313A300A4000230A50017
:101F32000030A6000A168A11B6260A128A15B8308F
:101F420083120313A2008930A3000A168A116126A4
:101F52000A128A150A3083120313A0000030A1006E
:101F62005908A3005808A2000A168A1181250A12EC
:101F72008A15831203132108AD002008AC002C0837
:101F8200303E0A168A1170240A128A150A30831208
:101F92000313A0000030A1005908A3005808A200B2
:101FA2000A128A11C1270A128A1583120313210801
:101FB200AF002008AE002E08303E0A168A117024A7
:101FC2000A128A15BD2EAB01AB0AFA2F5B08A900D3
:101FD200AA012A08003A0319EF2FBD2E2908233A35
:101FE2000319E42F113A0319242F0A3A0319842FF3
:101FF200BD2E2B080319FE2FFF2F1B2F0800FF1BDE
:102002000A2883137F1883170008840A0319FF0A1A
:1020120008007F087F398A000408840A0319FF0A2E
:0220220082003A
:1028BA00193400341E340034403420348316031390
:1028CA00871583120313871D6B2C6C2C6E2C00301A
:1028DA006F2C0130080083120313A100871421080A
:1028EA008800071407100C3083120313A000A00BF2
:1028FA007C2C0000080083120313A0002003031D90
:10290A00872C882C8D2C1211831603138C100B1311
:10291A0083122008031D922C932C982C12158316CF
:10292A0003138C140B17080083120313A2008710D9
:10293A002208880007140710043022020318A62C64
:10294A00A72CB22C033083120313A1009730A000E6
:10295A00A00BAD2CA10BAD2CB92C0C308312031398
:10296A00A000A00BB62C0000080083120313A401D8
:10297A00A501201CC12CC22CC82C2208A4070318AC
:10298A00A50A2308A50701300310A20DA30DFF3ED7
:10299A00031DC92C01300310A10CA00CFF3E031D1E
:1029AA00D02C20082104031DDB2CDC2CBE2C25088E
:1029BA00A1002408A00008000A168A11C7250A16D1
:1029CA008A110A168A1110260A168A1120308312D1
:1029DA000313D5005508DB000A128A15E4210A16EA
:1029EA008A1183120313DC01DC0A002D0A128A15EC
:1029FA0073220A168A11831203135C030319062D24
:102A0A00072DFB2CF12C0A128A110C282030831274
:102A1A000313A2002208DB00A301A4012C2D2030FD
:102A2A00831203135B06031D1B2D1C2D242DC73097
:102A3A0083120313A200212DA20B202D242D013075
:102A4A0083120313A3070318A40A0030A407240857
:102A5A00803AA2002108803A2202031D362D20085E
:102A6A002302031C392D3A2D142D2030831203130F
:102A7A00A2002208DB00080083120313A400C53059
:102A8A00A20022089F052408A200A20DA20DA20DF1
:102A9A001F082206C73922069F0003308312031338
:102AAA00A3009730A200A20B582DA30B582D831216
:102ABA0003131F151F19622D632D5F2D1E08A20017
:102ACA00A3012208A300A2012208A5002308A60048
:102ADA00831603131E08831203132507A200260870
:102AEA000318260AA3002208A5002308A600260820
:102AFA00A1002508A000080083120313A501A6015E
:102B0A002008210403198A2D8B2DC22DA701A70A9B
:102B1A00992D01300310A00DA10DFF3E031D8F2D2D
:102B2A000130A4002408A707A11F9C2D9D2D8E2DDE
:102B3A0001300310A50DA60DFF3E031D9E2D210891
:102B4A002302031DAA2D20082202031CAD2DAE2D3F
:102B5A00B52D2008A2022108031CA303A3022514F1
:102B6A0001300310A10CA00CFF3E031DB62D01304D
:102B7A00A702031DC12DC22D9D2D2608A1002508DF
:102B8A00A000080083160313880187150713831210
:102B9A000313071383160313071087108510831274
:102BAA0003138510F0308316031386003F30831217
:102BBA0003139F051F14831603139F178B010430F9
:102BCA008312031392009101FF30831603139200BC
:102BDA00831203131215831603138C148B170B1706
:102BEA00FF30920019308312031395003C3097008E
:102BFA00803095000C3097008316031307150630B2
:102C0A008312031390008B1786010B108B15831602
:102C1A00031381130800831203130710143083125D
:102C2A000313A4007930A300A30B192EA40B192EA9
:102C3A0038300A168A1199240A168A110730831223
:102C4A000313A4007C30A300A30B292EA40B292E66
:102C5A00000038300A168A1199240A168A11C730D8
:102C6A0083120313A300392EA30B382E3C2E3830BF
:102C7A000A168A1199240A168A1138300A168A11F4
:102C8A0099240A168A110C300A168A1199240A16EE
:102C9A008A1101300A168A1199240A168A110630F5
:102CAA000A168A1199240A168A110C300A168A11F0
:102CBA0099240A168A11080083120313A701A8018E
:102CCA008C2E8312031327082207A5002308A400C9
:102CDA000318A40AA71F722EA4038312031324083D
:102CEA00A6002608FF00250884000A168A1100207B
:102CFA000A168A110A168A1170240A168A110130D4
:102D0A0083120313A7070318A80A0030A807270885
:102D1A002207A5002308A4000318A40AA71F962EB9
:102D2A00A403831203132408A6002608FF0025081B
:102D3A0084000A168A1100200A168A11003A031919
:102D4A00A72EA82EB52E2808803AFF0083307F02CE
:102D5A00031DB12EE8302702031CB42EB52E662EB1
:102D6A0008008312031325032604031DBD2EBE2E5D
:102D7A00DE2EA801D32E0C3083120313A700A70B53
:102D8A00C42E000014300A168A1199240A168A11D0
:102D9A00013083120313A7002708A8072408803AE2
:102DAA00803C031DDA2E23082802031CDD2EDE2EAA
:102DBA00C02E02308312031325062604031DE62EB5
:102DCA00E72E0F2F2308403EA30024080318013ED4
:102DDA00003EA400A801042F0C3083120313A7009D
:102DEA00A70BF52E000014300A168A1199240A1628
:102DFA008A11013083120313A7002708A8072408A1
:102E0A00803A803C031D0B2F23082802031C0E2F37
:102E1A000F2FF12E080083120313AC01A71F162FE0
:102E2A00172F1E2FA609A709A60A0319A70AAC017C
:102E3A00AC0AA91F212F222F2B2FA809A909A80AFA
:102E4A000319A90A0130AA002A08AC06AD01AE018D
:102E5A00260827040319322F332F6A2FAB01AB0A36
:102E6A00412F01300310A60DA70DFF3E031D372F7A
:102E7A000130AA002A08AB07A71F442F452F362F77
:102E8A0001300310AD0DAE0DFF3E031D462F27087E
:102E9A002902031D522F26082802031C552F562FDC
:102EAA005D2F2608A8022708031CA903A9022D14CE
:102EBA0001300310A70CA60CFF3E031D5E2F013044
:102ECA00AB02031D692F6A2F452F2C0803196E2F99
:102EDA006F2F742FAD09AE09AD0A0319AE0A2E0879
:102EEA00A7002D08A600080083120313AA01A71F32
:102EFA007F2F802F8D2FA409A509A609A709A40A47
:102F0A000319A50A0319A60A0319A70AAA01AA0AF4
:102F1A00A31F902F912F9C2FA009A109A209A309F1
:102F2A00A00A0319A10A0319A20A0319A30A23086A
:102F3A002204210420040319A32FA42FE72FA90197
:102F4A00A90AB42F0130A8000310A00DA10DA20DEB
:102F5A00A30DA80BA92F0130A8002808A907A31FB1
:102F6A00B72FB82FA72F23082702031DC62F220821
:102F7A002602031DC62F21082502031DC62F20087D
:102F8A002402031CC92FCA2FD82F2008A402210803
:102F9A00031C210FA5022208031C220FA6022308E4
:102FAA00031C230FA70201300310A30CA20CA10CCF
:102FBA00A00CFF3E031DD92F0130A902031DE62FE5
:102FCA00E72FB82F2A080319EB2FEC2FF72FA409A4
:102FDA00A509A609A709A40A0319A50A0319A60A95
:102FEA000319A70A2708A3002608A2002508A1009A
:062FFA002408A0000800FD
:02400E00393F38
:00000001FF
